{
	"contracts/1_Dao.sol": {
		"Dao": {
			"abi": [
				{
					"inputs": [
						{
							"internalType": "uint256",
							"name": "_contributionTimeEnd",
							"type": "uint256"
						},
						{
							"internalType": "uint256",
							"name": "_voteTime",
							"type": "uint256"
						},
						{
							"internalType": "uint256",
							"name": "_quorum",
							"type": "uint256"
						}
					],
					"stateMutability": "nonpayable",
					"type": "constructor"
				},
				{
					"inputs": [
						{
							"internalType": "uint256",
							"name": "",
							"type": "uint256"
						}
					],
					"name": "InvestorList",
					"outputs": [
						{
							"internalType": "address",
							"name": "",
							"type": "address"
						}
					],
					"stateMutability": "view",
					"type": "function"
				},
				{
					"inputs": [],
					"name": "availableFunds",
					"outputs": [
						{
							"internalType": "uint256",
							"name": "",
							"type": "uint256"
						}
					],
					"stateMutability": "view",
					"type": "function"
				},
				{
					"inputs": [],
					"name": "contributionTimeEnd",
					"outputs": [
						{
							"internalType": "uint256",
							"name": "",
							"type": "uint256"
						}
					],
					"stateMutability": "view",
					"type": "function"
				},
				{
					"inputs": [
						{
							"internalType": "address",
							"name": "",
							"type": "address"
						},
						{
							"internalType": "uint256",
							"name": "",
							"type": "uint256"
						}
					],
					"name": "isVoted",
					"outputs": [
						{
							"internalType": "bool",
							"name": "",
							"type": "bool"
						}
					],
					"stateMutability": "view",
					"type": "function"
				},
				{
					"inputs": [],
					"name": "manager",
					"outputs": [
						{
							"internalType": "address",
							"name": "",
							"type": "address"
						}
					],
					"stateMutability": "view",
					"type": "function"
				},
				{
					"inputs": [],
					"name": "nextProposalId",
					"outputs": [
						{
							"internalType": "uint256",
							"name": "",
							"type": "uint256"
						}
					],
					"stateMutability": "view",
					"type": "function"
				},
				{
					"inputs": [
						{
							"internalType": "address",
							"name": "",
							"type": "address"
						}
					],
					"name": "numOfshares",
					"outputs": [
						{
							"internalType": "uint256",
							"name": "",
							"type": "uint256"
						}
					],
					"stateMutability": "view",
					"type": "function"
				},
				{
					"inputs": [
						{
							"internalType": "address",
							"name": "",
							"type": "address"
						}
					],
					"name": "proposals",
					"outputs": [
						{
							"internalType": "uint256",
							"name": "",
							"type": "uint256"
						}
					],
					"stateMutability": "view",
					"type": "function"
				},
				{
					"inputs": [],
					"name": "quorum",
					"outputs": [
						{
							"internalType": "uint256",
							"name": "",
							"type": "uint256"
						}
					],
					"stateMutability": "view",
					"type": "function"
				},
				{
					"inputs": [],
					"name": "totalshares",
					"outputs": [
						{
							"internalType": "uint256",
							"name": "",
							"type": "uint256"
						}
					],
					"stateMutability": "view",
					"type": "function"
				},
				{
					"inputs": [],
					"name": "voteTime",
					"outputs": [
						{
							"internalType": "uint256",
							"name": "",
							"type": "uint256"
						}
					],
					"stateMutability": "view",
					"type": "function"
				},
				{
					"inputs": [
						{
							"internalType": "address",
							"name": "",
							"type": "address"
						},
						{
							"internalType": "address",
							"name": "",
							"type": "address"
						}
					],
					"name": "withdrawlStatus",
					"outputs": [
						{
							"internalType": "bool",
							"name": "",
							"type": "bool"
						}
					],
					"stateMutability": "view",
					"type": "function"
				}
			],
			"devdoc": {
				"kind": "dev",
				"methods": {},
				"version": 1
			},
			"evm": {
				"assembly": "    /* \"contracts/1_Dao.sol\":70:1325  contract Dao{... */\n  mstore(0x40, 0x80)\n    /* \"contracts/1_Dao.sol\":799:1076  constructor(uint _contributionTimeEnd, uint _voteTime, uint _quorum){... */\n  callvalue\n  dup1\n  iszero\n  tag_1\n  jumpi\n  0x00\n  dup1\n  revert\ntag_1:\n  pop\n  mload(0x40)\n  sub(codesize, bytecodeSize)\n  dup1\n  bytecodeSize\n  dup4\n  codecopy\n  dup2\n  dup2\n  add\n  0x40\n  mstore\n  dup2\n  add\n  swap1\n  tag_2\n  swap2\n  swap1\n  tag_3\n  jump\t// in\ntag_2:\n    /* \"contracts/1_Dao.sol\":893:894  0 */\n  0x00\n    /* \"contracts/1_Dao.sol\":885:892  _quorum */\n  dup2\n    /* \"contracts/1_Dao.sol\":885:894  _quorum>0 */\n  gt\n    /* \"contracts/1_Dao.sol\":885:909  _quorum>0 && _quorum<100 */\n  dup1\n  iszero\n  tag_6\n  jumpi\n  pop\n    /* \"contracts/1_Dao.sol\":906:909  100 */\n  0x64\n    /* \"contracts/1_Dao.sol\":898:905  _quorum */\n  dup2\n    /* \"contracts/1_Dao.sol\":898:909  _quorum<100 */\n  lt\n    /* \"contracts/1_Dao.sol\":885:909  _quorum>0 && _quorum<100 */\ntag_6:\n    /* \"contracts/1_Dao.sol\":877:930  require(_quorum>0 && _quorum<100,\"Not a valid value\") */\n  tag_7\n  jumpi\n  mload(0x40)\n  0x08c379a000000000000000000000000000000000000000000000000000000000\n  dup2\n  mstore\n  0x04\n  add\n  tag_8\n  swap1\n  tag_9\n  jump\t// in\ntag_8:\n  mload(0x40)\n  dup1\n  swap2\n  sub\n  swap1\n  revert\ntag_7:\n    /* \"contracts/1_Dao.sol\":962:982  _contributionTimeEnd */\n  dup3\n    /* \"contracts/1_Dao.sol\":940:959  contributionTimeEnd */\n  0x08\n    /* \"contracts/1_Dao.sol\":940:982  contributionTimeEnd = _contributionTimeEnd */\n  dup2\n  swap1\n  sstore\n  pop\n    /* \"contracts/1_Dao.sol\":1001:1008  _quorum */\n  dup1\n    /* \"contracts/1_Dao.sol\":992:998  quorum */\n  0x0b\n    /* \"contracts/1_Dao.sol\":992:1008  quorum = _quorum */\n  dup2\n  swap1\n  sstore\n  pop\n    /* \"contracts/1_Dao.sol\":1029:1038  _voteTime */\n  dup2\n    /* \"contracts/1_Dao.sol\":1018:1026  voteTime */\n  0x0a\n    /* \"contracts/1_Dao.sol\":1018:1038  voteTime = _voteTime */\n  dup2\n  swap1\n  sstore\n  pop\n    /* \"contracts/1_Dao.sol\":1058:1068  msg.sender */\n  caller\n    /* \"contracts/1_Dao.sol\":1048:1055  manager */\n  0x0c\n  0x00\n    /* \"contracts/1_Dao.sol\":1048:1068  manager = msg.sender */\n  0x0100\n  exp\n  dup2\n  sload\n  dup2\n  0xffffffffffffffffffffffffffffffffffffffff\n  mul\n  not\n  and\n  swap1\n  dup4\n  0xffffffffffffffffffffffffffffffffffffffff\n  and\n  mul\n  or\n  swap1\n  sstore\n  pop\n    /* \"contracts/1_Dao.sol\":799:1076  constructor(uint _contributionTimeEnd, uint _voteTime, uint _quorum){... */\n  pop\n  pop\n  pop\n    /* \"contracts/1_Dao.sol\":70:1325  contract Dao{... */\n  jump(tag_10)\n    /* \"#utility.yul\":88:205   */\ntag_12:\n    /* \"#utility.yul\":197:198   */\n  0x00\n    /* \"#utility.yul\":194:195   */\n  dup1\n    /* \"#utility.yul\":187:199   */\n  revert\n    /* \"#utility.yul\":334:411   */\ntag_14:\n    /* \"#utility.yul\":371:378   */\n  0x00\n    /* \"#utility.yul\":400:405   */\n  dup2\n    /* \"#utility.yul\":389:405   */\n  swap1\n  pop\n    /* \"#utility.yul\":334:411   */\n  swap2\n  swap1\n  pop\n  jump\t// out\n    /* \"#utility.yul\":417:539   */\ntag_15:\n    /* \"#utility.yul\":490:514   */\n  tag_26\n    /* \"#utility.yul\":508:513   */\n  dup2\n    /* \"#utility.yul\":490:514   */\n  tag_14\n  jump\t// in\ntag_26:\n    /* \"#utility.yul\":483:488   */\n  dup2\n    /* \"#utility.yul\":480:515   */\n  eq\n    /* \"#utility.yul\":470:533   */\n  tag_27\n  jumpi\n    /* \"#utility.yul\":529:530   */\n  0x00\n    /* \"#utility.yul\":526:527   */\n  dup1\n    /* \"#utility.yul\":519:531   */\n  revert\n    /* \"#utility.yul\":470:533   */\ntag_27:\n    /* \"#utility.yul\":417:539   */\n  pop\n  jump\t// out\n    /* \"#utility.yul\":545:688   */\ntag_16:\n    /* \"#utility.yul\":602:607   */\n  0x00\n    /* \"#utility.yul\":633:639   */\n  dup2\n    /* \"#utility.yul\":627:640   */\n  mload\n    /* \"#utility.yul\":618:640   */\n  swap1\n  pop\n    /* \"#utility.yul\":649:682   */\n  tag_29\n    /* \"#utility.yul\":676:681   */\n  dup2\n    /* \"#utility.yul\":649:682   */\n  tag_15\n  jump\t// in\ntag_29:\n    /* \"#utility.yul\":545:688   */\n  swap3\n  swap2\n  pop\n  pop\n  jump\t// out\n    /* \"#utility.yul\":694:1357   */\ntag_3:\n    /* \"#utility.yul\":782:788   */\n  0x00\n    /* \"#utility.yul\":790:796   */\n  dup1\n    /* \"#utility.yul\":798:804   */\n  0x00\n    /* \"#utility.yul\":847:849   */\n  0x60\n    /* \"#utility.yul\":835:844   */\n  dup5\n    /* \"#utility.yul\":826:833   */\n  dup7\n    /* \"#utility.yul\":822:845   */\n  sub\n    /* \"#utility.yul\":818:850   */\n  slt\n    /* \"#utility.yul\":815:934   */\n  iszero\n  tag_31\n  jumpi\n    /* \"#utility.yul\":853:932   */\n  tag_32\n  tag_12\n  jump\t// in\ntag_32:\n    /* \"#utility.yul\":815:934   */\ntag_31:\n    /* \"#utility.yul\":973:974   */\n  0x00\n    /* \"#utility.yul\":998:1062   */\n  tag_33\n    /* \"#utility.yul\":1054:1061   */\n  dup7\n    /* \"#utility.yul\":1045:1051   */\n  dup3\n    /* \"#utility.yul\":1034:1043   */\n  dup8\n    /* \"#utility.yul\":1030:1052   */\n  add\n    /* \"#utility.yul\":998:1062   */\n  tag_16\n  jump\t// in\ntag_33:\n    /* \"#utility.yul\":988:1062   */\n  swap4\n  pop\n    /* \"#utility.yul\":944:1072   */\n  pop\n    /* \"#utility.yul\":1111:1113   */\n  0x20\n    /* \"#utility.yul\":1137:1201   */\n  tag_34\n    /* \"#utility.yul\":1193:1200   */\n  dup7\n    /* \"#utility.yul\":1184:1190   */\n  dup3\n    /* \"#utility.yul\":1173:1182   */\n  dup8\n    /* \"#utility.yul\":1169:1191   */\n  add\n    /* \"#utility.yul\":1137:1201   */\n  tag_16\n  jump\t// in\ntag_34:\n    /* \"#utility.yul\":1127:1201   */\n  swap3\n  pop\n    /* \"#utility.yul\":1082:1211   */\n  pop\n    /* \"#utility.yul\":1250:1252   */\n  0x40\n    /* \"#utility.yul\":1276:1340   */\n  tag_35\n    /* \"#utility.yul\":1332:1339   */\n  dup7\n    /* \"#utility.yul\":1323:1329   */\n  dup3\n    /* \"#utility.yul\":1312:1321   */\n  dup8\n    /* \"#utility.yul\":1308:1330   */\n  add\n    /* \"#utility.yul\":1276:1340   */\n  tag_16\n  jump\t// in\ntag_35:\n    /* \"#utility.yul\":1266:1340   */\n  swap2\n  pop\n    /* \"#utility.yul\":1221:1350   */\n  pop\n    /* \"#utility.yul\":694:1357   */\n  swap3\n  pop\n  swap3\n  pop\n  swap3\n  jump\t// out\n    /* \"#utility.yul\":1363:1532   */\ntag_17:\n    /* \"#utility.yul\":1447:1458   */\n  0x00\n    /* \"#utility.yul\":1481:1487   */\n  dup3\n    /* \"#utility.yul\":1476:1479   */\n  dup3\n    /* \"#utility.yul\":1469:1488   */\n  mstore\n    /* \"#utility.yul\":1521:1525   */\n  0x20\n    /* \"#utility.yul\":1516:1519   */\n  dup3\n    /* \"#utility.yul\":1512:1526   */\n  add\n    /* \"#utility.yul\":1497:1526   */\n  swap1\n  pop\n    /* \"#utility.yul\":1363:1532   */\n  swap3\n  swap2\n  pop\n  pop\n  jump\t// out\n    /* \"#utility.yul\":1538:1705   */\ntag_18:\n    /* \"#utility.yul\":1678:1697   */\n  0x4e6f7420612076616c69642076616c7565000000000000000000000000000000\n    /* \"#utility.yul\":1674:1675   */\n  0x00\n    /* \"#utility.yul\":1666:1672   */\n  dup3\n    /* \"#utility.yul\":1662:1676   */\n  add\n    /* \"#utility.yul\":1655:1698   */\n  mstore\n    /* \"#utility.yul\":1538:1705   */\n  pop\n  jump\t// out\n    /* \"#utility.yul\":1711:2077   */\ntag_19:\n    /* \"#utility.yul\":1853:1856   */\n  0x00\n    /* \"#utility.yul\":1874:1941   */\n  tag_39\n    /* \"#utility.yul\":1938:1940   */\n  0x11\n    /* \"#utility.yul\":1933:1936   */\n  dup4\n    /* \"#utility.yul\":1874:1941   */\n  tag_17\n  jump\t// in\ntag_39:\n    /* \"#utility.yul\":1867:1941   */\n  swap2\n  pop\n    /* \"#utility.yul\":1950:2043   */\n  tag_40\n    /* \"#utility.yul\":2039:2042   */\n  dup3\n    /* \"#utility.yul\":1950:2043   */\n  tag_18\n  jump\t// in\ntag_40:\n    /* \"#utility.yul\":2068:2070   */\n  0x20\n    /* \"#utility.yul\":2063:2066   */\n  dup3\n    /* \"#utility.yul\":2059:2071   */\n  add\n    /* \"#utility.yul\":2052:2071   */\n  swap1\n  pop\n    /* \"#utility.yul\":1711:2077   */\n  swap2\n  swap1\n  pop\n  jump\t// out\n    /* \"#utility.yul\":2083:2502   */\ntag_9:\n    /* \"#utility.yul\":2249:2253   */\n  0x00\n    /* \"#utility.yul\":2287:2289   */\n  0x20\n    /* \"#utility.yul\":2276:2285   */\n  dup3\n    /* \"#utility.yul\":2272:2290   */\n  add\n    /* \"#utility.yul\":2264:2290   */\n  swap1\n  pop\n    /* \"#utility.yul\":2336:2345   */\n  dup2\n    /* \"#utility.yul\":2330:2334   */\n  dup2\n    /* \"#utility.yul\":2326:2346   */\n  sub\n    /* \"#utility.yul\":2322:2323   */\n  0x00\n    /* \"#utility.yul\":2311:2320   */\n  dup4\n    /* \"#utility.yul\":2307:2324   */\n  add\n    /* \"#utility.yul\":2300:2347   */\n  mstore\n    /* \"#utility.yul\":2364:2495   */\n  tag_42\n    /* \"#utility.yul\":2490:2494   */\n  dup2\n    /* \"#utility.yul\":2364:2495   */\n  tag_19\n  jump\t// in\ntag_42:\n    /* \"#utility.yul\":2356:2495   */\n  swap1\n  pop\n    /* \"#utility.yul\":2083:2502   */\n  swap2\n  swap1\n  pop\n  jump\t// out\n    /* \"contracts/1_Dao.sol\":70:1325  contract Dao{... */\ntag_10:\n  dataSize(sub_0)\n  dup1\n  dataOffset(sub_0)\n  0x00\n  codecopy\n  0x00\n  return\nstop\n\nsub_0: assembly {\n        /* \"contracts/1_Dao.sol\":70:1325  contract Dao{... */\n      mstore(0x40, 0x80)\n      callvalue\n      dup1\n      iszero\n      tag_1\n      jumpi\n      0x00\n      dup1\n      revert\n    tag_1:\n      pop\n      jumpi(tag_2, lt(calldatasize, 0x04))\n      shr(0xe0, calldataload(0x00))\n      dup1\n      0x8ee36f05\n      gt\n      tag_15\n      jumpi\n      dup1\n      0x8ee36f05\n      eq\n      tag_9\n      jumpi\n      dup1\n      0xafc8275b\n      eq\n      tag_10\n      jumpi\n      dup1\n      0xbcf93dd6\n      eq\n      tag_11\n      jumpi\n      dup1\n      0xd061c81e\n      eq\n      tag_12\n      jumpi\n      dup1\n      0xdd5fee6f\n      eq\n      tag_13\n      jumpi\n      dup1\n      0xe65da429\n      eq\n      tag_14\n      jumpi\n      jump(tag_2)\n    tag_15:\n      dup1\n      0x1703a018\n      eq\n      tag_3\n      jumpi\n      dup1\n      0x29f27577\n      eq\n      tag_4\n      jumpi\n      dup1\n      0x2ab09d14\n      eq\n      tag_5\n      jumpi\n      dup1\n      0x3341b445\n      eq\n      tag_6\n      jumpi\n      dup1\n      0x46fcff4c\n      eq\n      tag_7\n      jumpi\n      dup1\n      0x481c6a75\n      eq\n      tag_8\n      jumpi\n    tag_2:\n      0x00\n      dup1\n      revert\n        /* \"contracts/1_Dao.sol\":746:764  uint public quorum */\n    tag_3:\n      tag_16\n      tag_17\n      jump\t// in\n    tag_16:\n      mload(0x40)\n      tag_18\n      swap2\n      swap1\n      tag_19\n      jump\t// in\n    tag_18:\n      mload(0x40)\n      dup1\n      swap2\n      sub\n      swap1\n      return\n        /* \"contracts/1_Dao.sol\":551:580  address[] public InvestorList */\n    tag_4:\n      tag_20\n      0x04\n      dup1\n      calldatasize\n      sub\n      dup2\n      add\n      swap1\n      tag_21\n      swap2\n      swap1\n      tag_22\n      jump\t// in\n    tag_21:\n      tag_23\n      jump\t// in\n    tag_20:\n      mload(0x40)\n      tag_24\n      swap2\n      swap1\n      tag_25\n      jump\t// in\n    tag_24:\n      mload(0x40)\n      dup1\n      swap2\n      sub\n      swap1\n      return\n        /* \"contracts/1_Dao.sol\":688:714  uint public nextProposalId */\n    tag_5:\n      tag_26\n      tag_27\n      jump\t// in\n    tag_26:\n      mload(0x40)\n      tag_28\n      swap2\n      swap1\n      tag_19\n      jump\t// in\n    tag_28:\n      mload(0x40)\n      dup1\n      swap2\n      sub\n      swap1\n      return\n        /* \"contracts/1_Dao.sol\":504:544  mapping (address=>uint) public proposals */\n    tag_6:\n      tag_29\n      0x04\n      dup1\n      calldatasize\n      sub\n      dup2\n      add\n      swap1\n      tag_30\n      swap2\n      swap1\n      tag_31\n      jump\t// in\n    tag_30:\n      tag_32\n      jump\t// in\n    tag_29:\n      mload(0x40)\n      tag_33\n      swap2\n      swap1\n      tag_19\n      jump\t// in\n    tag_33:\n      mload(0x40)\n      dup1\n      swap2\n      sub\n      swap1\n      return\n        /* \"contracts/1_Dao.sol\":617:644  uint public  availableFunds */\n    tag_7:\n      tag_34\n      tag_35\n      jump\t// in\n    tag_34:\n      mload(0x40)\n      tag_36\n      swap2\n      swap1\n      tag_19\n      jump\t// in\n    tag_36:\n      mload(0x40)\n      dup1\n      swap2\n      sub\n      swap1\n      return\n        /* \"contracts/1_Dao.sol\":770:792  address public manager */\n    tag_8:\n      tag_37\n      tag_38\n      jump\t// in\n    tag_37:\n      mload(0x40)\n      tag_39\n      swap2\n      swap1\n      tag_25\n      jump\t// in\n    tag_39:\n      mload(0x40)\n      dup1\n      swap2\n      sub\n      swap1\n      return\n        /* \"contracts/1_Dao.sol\":372:425  mapping(address=>mapping (uint=>bool)) public isVoted */\n    tag_9:\n      tag_40\n      0x04\n      dup1\n      calldatasize\n      sub\n      dup2\n      add\n      swap1\n      tag_41\n      swap2\n      swap1\n      tag_42\n      jump\t// in\n    tag_41:\n      tag_43\n      jump\t// in\n    tag_40:\n      mload(0x40)\n      tag_44\n      swap2\n      swap1\n      tag_45\n      jump\t// in\n    tag_44:\n      mload(0x40)\n      dup1\n      swap2\n      sub\n      swap1\n      return\n        /* \"contracts/1_Dao.sol\":650:682  uint public  contributionTimeEnd */\n    tag_10:\n      tag_46\n      tag_47\n      jump\t// in\n    tag_46:\n      mload(0x40)\n      tag_48\n      swap2\n      swap1\n      tag_19\n      jump\t// in\n    tag_48:\n      mload(0x40)\n      dup1\n      swap2\n      sub\n      swap1\n      return\n        /* \"contracts/1_Dao.sol\":720:740  uint public voteTime */\n    tag_11:\n      tag_49\n      tag_50\n      jump\t// in\n    tag_49:\n      mload(0x40)\n      tag_51\n      swap2\n      swap1\n      tag_19\n      jump\t// in\n    tag_51:\n      mload(0x40)\n      dup1\n      swap2\n      sub\n      swap1\n      return\n        /* \"contracts/1_Dao.sol\":586:610  uint public  totalshares */\n    tag_12:\n      tag_52\n      tag_53\n      jump\t// in\n    tag_52:\n      mload(0x40)\n      tag_54\n      swap2\n      swap1\n      tag_19\n      jump\t// in\n    tag_54:\n      mload(0x40)\n      dup1\n      swap2\n      sub\n      swap1\n      return\n        /* \"contracts/1_Dao.sol\":432:497  mapping(address=>mapping (address =>bool)) public withdrawlStatus */\n    tag_13:\n      tag_55\n      0x04\n      dup1\n      calldatasize\n      sub\n      dup2\n      add\n      swap1\n      tag_56\n      swap2\n      swap1\n      tag_57\n      jump\t// in\n    tag_56:\n      tag_58\n      jump\t// in\n    tag_55:\n      mload(0x40)\n      tag_59\n      swap2\n      swap1\n      tag_45\n      jump\t// in\n    tag_59:\n      mload(0x40)\n      dup1\n      swap2\n      sub\n      swap1\n      return\n        /* \"contracts/1_Dao.sol\":325:366  mapping(address=>uint) public numOfshares */\n    tag_14:\n      tag_60\n      0x04\n      dup1\n      calldatasize\n      sub\n      dup2\n      add\n      swap1\n      tag_61\n      swap2\n      swap1\n      tag_31\n      jump\t// in\n    tag_61:\n      tag_62\n      jump\t// in\n    tag_60:\n      mload(0x40)\n      tag_63\n      swap2\n      swap1\n      tag_19\n      jump\t// in\n    tag_63:\n      mload(0x40)\n      dup1\n      swap2\n      sub\n      swap1\n      return\n        /* \"contracts/1_Dao.sol\":746:764  uint public quorum */\n    tag_17:\n      sload(0x0b)\n      dup2\n      jump\t// out\n        /* \"contracts/1_Dao.sol\":551:580  address[] public InvestorList */\n    tag_23:\n      0x05\n      dup2\n      dup2\n      sload\n      dup2\n      lt\n      tag_64\n      jumpi\n      0x00\n      dup1\n      revert\n    tag_64:\n      swap1\n      0x00\n      mstore\n      keccak256(0x00, 0x20)\n      add\n      0x00\n      swap2\n      pop\n      sload\n      swap1\n      0x0100\n      exp\n      swap1\n      div\n      0xffffffffffffffffffffffffffffffffffffffff\n      and\n      dup2\n      jump\t// out\n        /* \"contracts/1_Dao.sol\":688:714  uint public nextProposalId */\n    tag_27:\n      sload(0x09)\n      dup2\n      jump\t// out\n        /* \"contracts/1_Dao.sol\":504:544  mapping (address=>uint) public proposals */\n    tag_32:\n      mstore(0x20, 0x04)\n      dup1\n      0x00\n      mstore\n      keccak256(0x00, 0x40)\n      0x00\n      swap2\n      pop\n      swap1\n      pop\n      sload\n      dup2\n      jump\t// out\n        /* \"contracts/1_Dao.sol\":617:644  uint public  availableFunds */\n    tag_35:\n      sload(0x07)\n      dup2\n      jump\t// out\n        /* \"contracts/1_Dao.sol\":770:792  address public manager */\n    tag_38:\n      0x0c\n      0x00\n      swap1\n      sload\n      swap1\n      0x0100\n      exp\n      swap1\n      div\n      0xffffffffffffffffffffffffffffffffffffffff\n      and\n      dup2\n      jump\t// out\n        /* \"contracts/1_Dao.sol\":372:425  mapping(address=>mapping (uint=>bool)) public isVoted */\n    tag_43:\n      mstore(0x20, 0x02)\n      dup2\n      0x00\n      mstore\n      mstore(0x20, keccak256(0x00, 0x40))\n      dup1\n      0x00\n      mstore\n      keccak256(0x00, 0x40)\n      0x00\n      swap2\n      pop\n      swap2\n      pop\n      swap1\n      sload\n      swap1\n      0x0100\n      exp\n      swap1\n      div\n      0xff\n      and\n      dup2\n      jump\t// out\n        /* \"contracts/1_Dao.sol\":650:682  uint public  contributionTimeEnd */\n    tag_47:\n      sload(0x08)\n      dup2\n      jump\t// out\n        /* \"contracts/1_Dao.sol\":720:740  uint public voteTime */\n    tag_50:\n      sload(0x0a)\n      dup2\n      jump\t// out\n        /* \"contracts/1_Dao.sol\":586:610  uint public  totalshares */\n    tag_53:\n      sload(0x06)\n      dup2\n      jump\t// out\n        /* \"contracts/1_Dao.sol\":432:497  mapping(address=>mapping (address =>bool)) public withdrawlStatus */\n    tag_58:\n      mstore(0x20, 0x03)\n      dup2\n      0x00\n      mstore\n      mstore(0x20, keccak256(0x00, 0x40))\n      dup1\n      0x00\n      mstore\n      keccak256(0x00, 0x40)\n      0x00\n      swap2\n      pop\n      swap2\n      pop\n      swap1\n      sload\n      swap1\n      0x0100\n      exp\n      swap1\n      div\n      0xff\n      and\n      dup2\n      jump\t// out\n        /* \"contracts/1_Dao.sol\":325:366  mapping(address=>uint) public numOfshares */\n    tag_62:\n      mstore(0x20, 0x01)\n      dup1\n      0x00\n      mstore\n      keccak256(0x00, 0x40)\n      0x00\n      swap2\n      pop\n      swap1\n      pop\n      sload\n      dup2\n      jump\t// out\n        /* \"#utility.yul\":7:84   */\n    tag_66:\n        /* \"#utility.yul\":44:51   */\n      0x00\n        /* \"#utility.yul\":73:78   */\n      dup2\n        /* \"#utility.yul\":62:78   */\n      swap1\n      pop\n        /* \"#utility.yul\":7:84   */\n      swap2\n      swap1\n      pop\n      jump\t// out\n        /* \"#utility.yul\":90:208   */\n    tag_67:\n        /* \"#utility.yul\":177:201   */\n      tag_83\n        /* \"#utility.yul\":195:200   */\n      dup2\n        /* \"#utility.yul\":177:201   */\n      tag_66\n      jump\t// in\n    tag_83:\n        /* \"#utility.yul\":172:175   */\n      dup3\n        /* \"#utility.yul\":165:202   */\n      mstore\n        /* \"#utility.yul\":90:208   */\n      pop\n      pop\n      jump\t// out\n        /* \"#utility.yul\":214:436   */\n    tag_19:\n        /* \"#utility.yul\":307:311   */\n      0x00\n        /* \"#utility.yul\":345:347   */\n      0x20\n        /* \"#utility.yul\":334:343   */\n      dup3\n        /* \"#utility.yul\":330:348   */\n      add\n        /* \"#utility.yul\":322:348   */\n      swap1\n      pop\n        /* \"#utility.yul\":358:429   */\n      tag_85\n        /* \"#utility.yul\":426:427   */\n      0x00\n        /* \"#utility.yul\":415:424   */\n      dup4\n        /* \"#utility.yul\":411:428   */\n      add\n        /* \"#utility.yul\":402:408   */\n      dup5\n        /* \"#utility.yul\":358:429   */\n      tag_67\n      jump\t// in\n    tag_85:\n        /* \"#utility.yul\":214:436   */\n      swap3\n      swap2\n      pop\n      pop\n      jump\t// out\n        /* \"#utility.yul\":523:640   */\n    tag_69:\n        /* \"#utility.yul\":632:633   */\n      0x00\n        /* \"#utility.yul\":629:630   */\n      dup1\n        /* \"#utility.yul\":622:634   */\n      revert\n        /* \"#utility.yul\":769:891   */\n    tag_71:\n        /* \"#utility.yul\":842:866   */\n      tag_90\n        /* \"#utility.yul\":860:865   */\n      dup2\n        /* \"#utility.yul\":842:866   */\n      tag_66\n      jump\t// in\n    tag_90:\n        /* \"#utility.yul\":835:840   */\n      dup2\n        /* \"#utility.yul\":832:867   */\n      eq\n        /* \"#utility.yul\":822:885   */\n      tag_91\n      jumpi\n        /* \"#utility.yul\":881:882   */\n      0x00\n        /* \"#utility.yul\":878:879   */\n      dup1\n        /* \"#utility.yul\":871:883   */\n      revert\n        /* \"#utility.yul\":822:885   */\n    tag_91:\n        /* \"#utility.yul\":769:891   */\n      pop\n      jump\t// out\n        /* \"#utility.yul\":897:1036   */\n    tag_72:\n        /* \"#utility.yul\":943:948   */\n      0x00\n        /* \"#utility.yul\":981:987   */\n      dup2\n        /* \"#utility.yul\":968:988   */\n      calldataload\n        /* \"#utility.yul\":959:988   */\n      swap1\n      pop\n        /* \"#utility.yul\":997:1030   */\n      tag_93\n        /* \"#utility.yul\":1024:1029   */\n      dup2\n        /* \"#utility.yul\":997:1030   */\n      tag_71\n      jump\t// in\n    tag_93:\n        /* \"#utility.yul\":897:1036   */\n      swap3\n      swap2\n      pop\n      pop\n      jump\t// out\n        /* \"#utility.yul\":1042:1371   */\n    tag_22:\n        /* \"#utility.yul\":1101:1107   */\n      0x00\n        /* \"#utility.yul\":1150:1152   */\n      0x20\n        /* \"#utility.yul\":1138:1147   */\n      dup3\n        /* \"#utility.yul\":1129:1136   */\n      dup5\n        /* \"#utility.yul\":1125:1148   */\n      sub\n        /* \"#utility.yul\":1121:1153   */\n      slt\n        /* \"#utility.yul\":1118:1237   */\n      iszero\n      tag_95\n      jumpi\n        /* \"#utility.yul\":1156:1235   */\n      tag_96\n      tag_69\n      jump\t// in\n    tag_96:\n        /* \"#utility.yul\":1118:1237   */\n    tag_95:\n        /* \"#utility.yul\":1276:1277   */\n      0x00\n        /* \"#utility.yul\":1301:1354   */\n      tag_97\n        /* \"#utility.yul\":1346:1353   */\n      dup5\n        /* \"#utility.yul\":1337:1343   */\n      dup3\n        /* \"#utility.yul\":1326:1335   */\n      dup6\n        /* \"#utility.yul\":1322:1344   */\n      add\n        /* \"#utility.yul\":1301:1354   */\n      tag_72\n      jump\t// in\n    tag_97:\n        /* \"#utility.yul\":1291:1354   */\n      swap2\n      pop\n        /* \"#utility.yul\":1247:1364   */\n      pop\n        /* \"#utility.yul\":1042:1371   */\n      swap3\n      swap2\n      pop\n      pop\n      jump\t// out\n        /* \"#utility.yul\":1377:1503   */\n    tag_73:\n        /* \"#utility.yul\":1414:1421   */\n      0x00\n        /* \"#utility.yul\":1454:1496   */\n      0xffffffffffffffffffffffffffffffffffffffff\n        /* \"#utility.yul\":1447:1452   */\n      dup3\n        /* \"#utility.yul\":1443:1497   */\n      and\n        /* \"#utility.yul\":1432:1497   */\n      swap1\n      pop\n        /* \"#utility.yul\":1377:1503   */\n      swap2\n      swap1\n      pop\n      jump\t// out\n        /* \"#utility.yul\":1509:1605   */\n    tag_74:\n        /* \"#utility.yul\":1546:1553   */\n      0x00\n        /* \"#utility.yul\":1575:1599   */\n      tag_100\n        /* \"#utility.yul\":1593:1598   */\n      dup3\n        /* \"#utility.yul\":1575:1599   */\n      tag_73\n      jump\t// in\n    tag_100:\n        /* \"#utility.yul\":1564:1599   */\n      swap1\n      pop\n        /* \"#utility.yul\":1509:1605   */\n      swap2\n      swap1\n      pop\n      jump\t// out\n        /* \"#utility.yul\":1611:1729   */\n    tag_75:\n        /* \"#utility.yul\":1698:1722   */\n      tag_102\n        /* \"#utility.yul\":1716:1721   */\n      dup2\n        /* \"#utility.yul\":1698:1722   */\n      tag_74\n      jump\t// in\n    tag_102:\n        /* \"#utility.yul\":1693:1696   */\n      dup3\n        /* \"#utility.yul\":1686:1723   */\n      mstore\n        /* \"#utility.yul\":1611:1729   */\n      pop\n      pop\n      jump\t// out\n        /* \"#utility.yul\":1735:1957   */\n    tag_25:\n        /* \"#utility.yul\":1828:1832   */\n      0x00\n        /* \"#utility.yul\":1866:1868   */\n      0x20\n        /* \"#utility.yul\":1855:1864   */\n      dup3\n        /* \"#utility.yul\":1851:1869   */\n      add\n        /* \"#utility.yul\":1843:1869   */\n      swap1\n      pop\n        /* \"#utility.yul\":1879:1950   */\n      tag_104\n        /* \"#utility.yul\":1947:1948   */\n      0x00\n        /* \"#utility.yul\":1936:1945   */\n      dup4\n        /* \"#utility.yul\":1932:1949   */\n      add\n        /* \"#utility.yul\":1923:1929   */\n      dup5\n        /* \"#utility.yul\":1879:1950   */\n      tag_75\n      jump\t// in\n    tag_104:\n        /* \"#utility.yul\":1735:1957   */\n      swap3\n      swap2\n      pop\n      pop\n      jump\t// out\n        /* \"#utility.yul\":1963:2085   */\n    tag_76:\n        /* \"#utility.yul\":2036:2060   */\n      tag_106\n        /* \"#utility.yul\":2054:2059   */\n      dup2\n        /* \"#utility.yul\":2036:2060   */\n      tag_74\n      jump\t// in\n    tag_106:\n        /* \"#utility.yul\":2029:2034   */\n      dup2\n        /* \"#utility.yul\":2026:2061   */\n      eq\n        /* \"#utility.yul\":2016:2079   */\n      tag_107\n      jumpi\n        /* \"#utility.yul\":2075:2076   */\n      0x00\n        /* \"#utility.yul\":2072:2073   */\n      dup1\n        /* \"#utility.yul\":2065:2077   */\n      revert\n        /* \"#utility.yul\":2016:2079   */\n    tag_107:\n        /* \"#utility.yul\":1963:2085   */\n      pop\n      jump\t// out\n        /* \"#utility.yul\":2091:2230   */\n    tag_77:\n        /* \"#utility.yul\":2137:2142   */\n      0x00\n        /* \"#utility.yul\":2175:2181   */\n      dup2\n        /* \"#utility.yul\":2162:2182   */\n      calldataload\n        /* \"#utility.yul\":2153:2182   */\n      swap1\n      pop\n        /* \"#utility.yul\":2191:2224   */\n      tag_109\n        /* \"#utility.yul\":2218:2223   */\n      dup2\n        /* \"#utility.yul\":2191:2224   */\n      tag_76\n      jump\t// in\n    tag_109:\n        /* \"#utility.yul\":2091:2230   */\n      swap3\n      swap2\n      pop\n      pop\n      jump\t// out\n        /* \"#utility.yul\":2236:2565   */\n    tag_31:\n        /* \"#utility.yul\":2295:2301   */\n      0x00\n        /* \"#utility.yul\":2344:2346   */\n      0x20\n        /* \"#utility.yul\":2332:2341   */\n      dup3\n        /* \"#utility.yul\":2323:2330   */\n      dup5\n        /* \"#utility.yul\":2319:2342   */\n      sub\n        /* \"#utility.yul\":2315:2347   */\n      slt\n        /* \"#utility.yul\":2312:2431   */\n      iszero\n      tag_111\n      jumpi\n        /* \"#utility.yul\":2350:2429   */\n      tag_112\n      tag_69\n      jump\t// in\n    tag_112:\n        /* \"#utility.yul\":2312:2431   */\n    tag_111:\n        /* \"#utility.yul\":2470:2471   */\n      0x00\n        /* \"#utility.yul\":2495:2548   */\n      tag_113\n        /* \"#utility.yul\":2540:2547   */\n      dup5\n        /* \"#utility.yul\":2531:2537   */\n      dup3\n        /* \"#utility.yul\":2520:2529   */\n      dup6\n        /* \"#utility.yul\":2516:2538   */\n      add\n        /* \"#utility.yul\":2495:2548   */\n      tag_77\n      jump\t// in\n    tag_113:\n        /* \"#utility.yul\":2485:2548   */\n      swap2\n      pop\n        /* \"#utility.yul\":2441:2558   */\n      pop\n        /* \"#utility.yul\":2236:2565   */\n      swap3\n      swap2\n      pop\n      pop\n      jump\t// out\n        /* \"#utility.yul\":2571:3045   */\n    tag_42:\n        /* \"#utility.yul\":2639:2645   */\n      0x00\n        /* \"#utility.yul\":2647:2653   */\n      dup1\n        /* \"#utility.yul\":2696:2698   */\n      0x40\n        /* \"#utility.yul\":2684:2693   */\n      dup4\n        /* \"#utility.yul\":2675:2682   */\n      dup6\n        /* \"#utility.yul\":2671:2694   */\n      sub\n        /* \"#utility.yul\":2667:2699   */\n      slt\n        /* \"#utility.yul\":2664:2783   */\n      iszero\n      tag_115\n      jumpi\n        /* \"#utility.yul\":2702:2781   */\n      tag_116\n      tag_69\n      jump\t// in\n    tag_116:\n        /* \"#utility.yul\":2664:2783   */\n    tag_115:\n        /* \"#utility.yul\":2822:2823   */\n      0x00\n        /* \"#utility.yul\":2847:2900   */\n      tag_117\n        /* \"#utility.yul\":2892:2899   */\n      dup6\n        /* \"#utility.yul\":2883:2889   */\n      dup3\n        /* \"#utility.yul\":2872:2881   */\n      dup7\n        /* \"#utility.yul\":2868:2890   */\n      add\n        /* \"#utility.yul\":2847:2900   */\n      tag_77\n      jump\t// in\n    tag_117:\n        /* \"#utility.yul\":2837:2900   */\n      swap3\n      pop\n        /* \"#utility.yul\":2793:2910   */\n      pop\n        /* \"#utility.yul\":2949:2951   */\n      0x20\n        /* \"#utility.yul\":2975:3028   */\n      tag_118\n        /* \"#utility.yul\":3020:3027   */\n      dup6\n        /* \"#utility.yul\":3011:3017   */\n      dup3\n        /* \"#utility.yul\":3000:3009   */\n      dup7\n        /* \"#utility.yul\":2996:3018   */\n      add\n        /* \"#utility.yul\":2975:3028   */\n      tag_72\n      jump\t// in\n    tag_118:\n        /* \"#utility.yul\":2965:3028   */\n      swap2\n      pop\n        /* \"#utility.yul\":2920:3038   */\n      pop\n        /* \"#utility.yul\":2571:3045   */\n      swap3\n      pop\n      swap3\n      swap1\n      pop\n      jump\t// out\n        /* \"#utility.yul\":3051:3141   */\n    tag_78:\n        /* \"#utility.yul\":3085:3092   */\n      0x00\n        /* \"#utility.yul\":3128:3133   */\n      dup2\n        /* \"#utility.yul\":3121:3134   */\n      iszero\n        /* \"#utility.yul\":3114:3135   */\n      iszero\n        /* \"#utility.yul\":3103:3135   */\n      swap1\n      pop\n        /* \"#utility.yul\":3051:3141   */\n      swap2\n      swap1\n      pop\n      jump\t// out\n        /* \"#utility.yul\":3147:3256   */\n    tag_79:\n        /* \"#utility.yul\":3228:3249   */\n      tag_121\n        /* \"#utility.yul\":3243:3248   */\n      dup2\n        /* \"#utility.yul\":3228:3249   */\n      tag_78\n      jump\t// in\n    tag_121:\n        /* \"#utility.yul\":3223:3226   */\n      dup3\n        /* \"#utility.yul\":3216:3250   */\n      mstore\n        /* \"#utility.yul\":3147:3256   */\n      pop\n      pop\n      jump\t// out\n        /* \"#utility.yul\":3262:3472   */\n    tag_45:\n        /* \"#utility.yul\":3349:3353   */\n      0x00\n        /* \"#utility.yul\":3387:3389   */\n      0x20\n        /* \"#utility.yul\":3376:3385   */\n      dup3\n        /* \"#utility.yul\":3372:3390   */\n      add\n        /* \"#utility.yul\":3364:3390   */\n      swap1\n      pop\n        /* \"#utility.yul\":3400:3465   */\n      tag_123\n        /* \"#utility.yul\":3462:3463   */\n      0x00\n        /* \"#utility.yul\":3451:3460   */\n      dup4\n        /* \"#utility.yul\":3447:3464   */\n      add\n        /* \"#utility.yul\":3438:3444   */\n      dup5\n        /* \"#utility.yul\":3400:3465   */\n      tag_79\n      jump\t// in\n    tag_123:\n        /* \"#utility.yul\":3262:3472   */\n      swap3\n      swap2\n      pop\n      pop\n      jump\t// out\n        /* \"#utility.yul\":3478:3952   */\n    tag_57:\n        /* \"#utility.yul\":3546:3552   */\n      0x00\n        /* \"#utility.yul\":3554:3560   */\n      dup1\n        /* \"#utility.yul\":3603:3605   */\n      0x40\n        /* \"#utility.yul\":3591:3600   */\n      dup4\n        /* \"#utility.yul\":3582:3589   */\n      dup6\n        /* \"#utility.yul\":3578:3601   */\n      sub\n        /* \"#utility.yul\":3574:3606   */\n      slt\n        /* \"#utility.yul\":3571:3690   */\n      iszero\n      tag_125\n      jumpi\n        /* \"#utility.yul\":3609:3688   */\n      tag_126\n      tag_69\n      jump\t// in\n    tag_126:\n        /* \"#utility.yul\":3571:3690   */\n    tag_125:\n        /* \"#utility.yul\":3729:3730   */\n      0x00\n        /* \"#utility.yul\":3754:3807   */\n      tag_127\n        /* \"#utility.yul\":3799:3806   */\n      dup6\n        /* \"#utility.yul\":3790:3796   */\n      dup3\n        /* \"#utility.yul\":3779:3788   */\n      dup7\n        /* \"#utility.yul\":3775:3797   */\n      add\n        /* \"#utility.yul\":3754:3807   */\n      tag_77\n      jump\t// in\n    tag_127:\n        /* \"#utility.yul\":3744:3807   */\n      swap3\n      pop\n        /* \"#utility.yul\":3700:3817   */\n      pop\n        /* \"#utility.yul\":3856:3858   */\n      0x20\n        /* \"#utility.yul\":3882:3935   */\n      tag_128\n        /* \"#utility.yul\":3927:3934   */\n      dup6\n        /* \"#utility.yul\":3918:3924   */\n      dup3\n        /* \"#utility.yul\":3907:3916   */\n      dup7\n        /* \"#utility.yul\":3903:3925   */\n      add\n        /* \"#utility.yul\":3882:3935   */\n      tag_77\n      jump\t// in\n    tag_128:\n        /* \"#utility.yul\":3872:3935   */\n      swap2\n      pop\n        /* \"#utility.yul\":3827:3945   */\n      pop\n        /* \"#utility.yul\":3478:3952   */\n      swap3\n      pop\n      swap3\n      swap1\n      pop\n      jump\t// out\n\n    auxdata: 0xa264697066735822122023f3f3dda9607ae9b8ef3996250908305de6550d33623b2b5212fa67c5716d6864736f6c63430008180033\n}\n",
				"bytecode": {
					"linkReferences": {},
					"object": "608060405234801561000f575f80fd5b5060405161077e38038061077e83398181016040528101906100319190610113565b5f811180156100405750606481105b61007f576040517f08c379a0000000000000000000000000000000000000000000000000000000008152600401610076906101bd565b60405180910390fd5b8260088190555080600b8190555081600a8190555033600c5f6101000a81548173ffffffffffffffffffffffffffffffffffffffff021916908373ffffffffffffffffffffffffffffffffffffffff1602179055505050506101db565b5f80fd5b5f819050919050565b6100f2816100e0565b81146100fc575f80fd5b50565b5f8151905061010d816100e9565b92915050565b5f805f6060848603121561012a576101296100dc565b5b5f610137868287016100ff565b9350506020610148868287016100ff565b9250506040610159868287016100ff565b9150509250925092565b5f82825260208201905092915050565b7f4e6f7420612076616c69642076616c75650000000000000000000000000000005f82015250565b5f6101a7601183610163565b91506101b282610173565b602082019050919050565b5f6020820190508181035f8301526101d48161019b565b9050919050565b610596806101e85f395ff3fe608060405234801561000f575f80fd5b50600436106100b2575f3560e01c80638ee36f051161006f5780638ee36f051461018e578063afc8275b146101be578063bcf93dd6146101dc578063d061c81e146101fa578063dd5fee6f14610218578063e65da42914610248576100b2565b80631703a018146100b657806329f27577146100d45780632ab09d14146101045780633341b4451461012257806346fcff4c14610152578063481c6a7514610170575b5f80fd5b6100be610278565b6040516100cb9190610392565b60405180910390f35b6100ee60048036038101906100e991906103d9565b61027e565b6040516100fb9190610443565b60405180910390f35b61010c6102b9565b6040516101199190610392565b60405180910390f35b61013c60048036038101906101379190610486565b6102bf565b6040516101499190610392565b60405180910390f35b61015a6102d4565b6040516101679190610392565b60405180910390f35b6101786102da565b6040516101859190610443565b60405180910390f35b6101a860048036038101906101a391906104b1565b6102ff565b6040516101b59190610509565b60405180910390f35b6101c6610329565b6040516101d39190610392565b60405180910390f35b6101e461032f565b6040516101f19190610392565b60405180910390f35b610202610335565b60405161020f9190610392565b60405180910390f35b610232600480360381019061022d9190610522565b61033b565b60405161023f9190610509565b60405180910390f35b610262600480360381019061025d9190610486565b610365565b60405161026f9190610392565b60405180910390f35b600b5481565b6005818154811061028d575f80fd5b905f5260205f20015f915054906101000a900473ffffffffffffffffffffffffffffffffffffffff1681565b60095481565b6004602052805f5260405f205f915090505481565b60075481565b600c5f9054906101000a900473ffffffffffffffffffffffffffffffffffffffff1681565b6002602052815f5260405f20602052805f5260405f205f915091509054906101000a900460ff1681565b60085481565b600a5481565b60065481565b6003602052815f5260405f20602052805f5260405f205f915091509054906101000a900460ff1681565b6001602052805f5260405f205f915090505481565b5f819050919050565b61038c8161037a565b82525050565b5f6020820190506103a55f830184610383565b92915050565b5f80fd5b6103b88161037a565b81146103c2575f80fd5b50565b5f813590506103d3816103af565b92915050565b5f602082840312156103ee576103ed6103ab565b5b5f6103fb848285016103c5565b91505092915050565b5f73ffffffffffffffffffffffffffffffffffffffff82169050919050565b5f61042d82610404565b9050919050565b61043d81610423565b82525050565b5f6020820190506104565f830184610434565b92915050565b61046581610423565b811461046f575f80fd5b50565b5f813590506104808161045c565b92915050565b5f6020828403121561049b5761049a6103ab565b5b5f6104a884828501610472565b91505092915050565b5f80604083850312156104c7576104c66103ab565b5b5f6104d485828601610472565b92505060206104e5858286016103c5565b9150509250929050565b5f8115159050919050565b610503816104ef565b82525050565b5f60208201905061051c5f8301846104fa565b92915050565b5f8060408385031215610538576105376103ab565b5b5f61054585828601610472565b925050602061055685828601610472565b915050925092905056fea264697066735822122023f3f3dda9607ae9b8ef3996250908305de6550d33623b2b5212fa67c5716d6864736f6c63430008180033",
					"opcodes": "PUSH1 0x80 PUSH1 0x40 MSTORE CALLVALUE DUP1 ISZERO PUSH2 0xF JUMPI PUSH0 DUP1 REVERT JUMPDEST POP PUSH1 0x40 MLOAD PUSH2 0x77E CODESIZE SUB DUP1 PUSH2 0x77E DUP4 CODECOPY DUP2 DUP2 ADD PUSH1 0x40 MSTORE DUP2 ADD SWAP1 PUSH2 0x31 SWAP2 SWAP1 PUSH2 0x113 JUMP JUMPDEST PUSH0 DUP2 GT DUP1 ISZERO PUSH2 0x40 JUMPI POP PUSH1 0x64 DUP2 LT JUMPDEST PUSH2 0x7F JUMPI PUSH1 0x40 MLOAD PUSH32 0x8C379A000000000000000000000000000000000000000000000000000000000 DUP2 MSTORE PUSH1 0x4 ADD PUSH2 0x76 SWAP1 PUSH2 0x1BD JUMP JUMPDEST PUSH1 0x40 MLOAD DUP1 SWAP2 SUB SWAP1 REVERT JUMPDEST DUP3 PUSH1 0x8 DUP2 SWAP1 SSTORE POP DUP1 PUSH1 0xB DUP2 SWAP1 SSTORE POP DUP2 PUSH1 0xA DUP2 SWAP1 SSTORE POP CALLER PUSH1 0xC PUSH0 PUSH2 0x100 EXP DUP2 SLOAD DUP2 PUSH20 0xFFFFFFFFFFFFFFFFFFFFFFFFFFFFFFFFFFFFFFFF MUL NOT AND SWAP1 DUP4 PUSH20 0xFFFFFFFFFFFFFFFFFFFFFFFFFFFFFFFFFFFFFFFF AND MUL OR SWAP1 SSTORE POP POP POP POP PUSH2 0x1DB JUMP JUMPDEST PUSH0 DUP1 REVERT JUMPDEST PUSH0 DUP2 SWAP1 POP SWAP2 SWAP1 POP JUMP JUMPDEST PUSH2 0xF2 DUP2 PUSH2 0xE0 JUMP JUMPDEST DUP2 EQ PUSH2 0xFC JUMPI PUSH0 DUP1 REVERT JUMPDEST POP JUMP JUMPDEST PUSH0 DUP2 MLOAD SWAP1 POP PUSH2 0x10D DUP2 PUSH2 0xE9 JUMP JUMPDEST SWAP3 SWAP2 POP POP JUMP JUMPDEST PUSH0 DUP1 PUSH0 PUSH1 0x60 DUP5 DUP7 SUB SLT ISZERO PUSH2 0x12A JUMPI PUSH2 0x129 PUSH2 0xDC JUMP JUMPDEST JUMPDEST PUSH0 PUSH2 0x137 DUP7 DUP3 DUP8 ADD PUSH2 0xFF JUMP JUMPDEST SWAP4 POP POP PUSH1 0x20 PUSH2 0x148 DUP7 DUP3 DUP8 ADD PUSH2 0xFF JUMP JUMPDEST SWAP3 POP POP PUSH1 0x40 PUSH2 0x159 DUP7 DUP3 DUP8 ADD PUSH2 0xFF JUMP JUMPDEST SWAP2 POP POP SWAP3 POP SWAP3 POP SWAP3 JUMP JUMPDEST PUSH0 DUP3 DUP3 MSTORE PUSH1 0x20 DUP3 ADD SWAP1 POP SWAP3 SWAP2 POP POP JUMP JUMPDEST PUSH32 0x4E6F7420612076616C69642076616C7565000000000000000000000000000000 PUSH0 DUP3 ADD MSTORE POP JUMP JUMPDEST PUSH0 PUSH2 0x1A7 PUSH1 0x11 DUP4 PUSH2 0x163 JUMP JUMPDEST SWAP2 POP PUSH2 0x1B2 DUP3 PUSH2 0x173 JUMP JUMPDEST PUSH1 0x20 DUP3 ADD SWAP1 POP SWAP2 SWAP1 POP JUMP JUMPDEST PUSH0 PUSH1 0x20 DUP3 ADD SWAP1 POP DUP2 DUP2 SUB PUSH0 DUP4 ADD MSTORE PUSH2 0x1D4 DUP2 PUSH2 0x19B JUMP JUMPDEST SWAP1 POP SWAP2 SWAP1 POP JUMP JUMPDEST PUSH2 0x596 DUP1 PUSH2 0x1E8 PUSH0 CODECOPY PUSH0 RETURN INVALID PUSH1 0x80 PUSH1 0x40 MSTORE CALLVALUE DUP1 ISZERO PUSH2 0xF JUMPI PUSH0 DUP1 REVERT JUMPDEST POP PUSH1 0x4 CALLDATASIZE LT PUSH2 0xB2 JUMPI PUSH0 CALLDATALOAD PUSH1 0xE0 SHR DUP1 PUSH4 0x8EE36F05 GT PUSH2 0x6F JUMPI DUP1 PUSH4 0x8EE36F05 EQ PUSH2 0x18E JUMPI DUP1 PUSH4 0xAFC8275B EQ PUSH2 0x1BE JUMPI DUP1 PUSH4 0xBCF93DD6 EQ PUSH2 0x1DC JUMPI DUP1 PUSH4 0xD061C81E EQ PUSH2 0x1FA JUMPI DUP1 PUSH4 0xDD5FEE6F EQ PUSH2 0x218 JUMPI DUP1 PUSH4 0xE65DA429 EQ PUSH2 0x248 JUMPI PUSH2 0xB2 JUMP JUMPDEST DUP1 PUSH4 0x1703A018 EQ PUSH2 0xB6 JUMPI DUP1 PUSH4 0x29F27577 EQ PUSH2 0xD4 JUMPI DUP1 PUSH4 0x2AB09D14 EQ PUSH2 0x104 JUMPI DUP1 PUSH4 0x3341B445 EQ PUSH2 0x122 JUMPI DUP1 PUSH4 0x46FCFF4C EQ PUSH2 0x152 JUMPI DUP1 PUSH4 0x481C6A75 EQ PUSH2 0x170 JUMPI JUMPDEST PUSH0 DUP1 REVERT JUMPDEST PUSH2 0xBE PUSH2 0x278 JUMP JUMPDEST PUSH1 0x40 MLOAD PUSH2 0xCB SWAP2 SWAP1 PUSH2 0x392 JUMP JUMPDEST PUSH1 0x40 MLOAD DUP1 SWAP2 SUB SWAP1 RETURN JUMPDEST PUSH2 0xEE PUSH1 0x4 DUP1 CALLDATASIZE SUB DUP2 ADD SWAP1 PUSH2 0xE9 SWAP2 SWAP1 PUSH2 0x3D9 JUMP JUMPDEST PUSH2 0x27E JUMP JUMPDEST PUSH1 0x40 MLOAD PUSH2 0xFB SWAP2 SWAP1 PUSH2 0x443 JUMP JUMPDEST PUSH1 0x40 MLOAD DUP1 SWAP2 SUB SWAP1 RETURN JUMPDEST PUSH2 0x10C PUSH2 0x2B9 JUMP JUMPDEST PUSH1 0x40 MLOAD PUSH2 0x119 SWAP2 SWAP1 PUSH2 0x392 JUMP JUMPDEST PUSH1 0x40 MLOAD DUP1 SWAP2 SUB SWAP1 RETURN JUMPDEST PUSH2 0x13C PUSH1 0x4 DUP1 CALLDATASIZE SUB DUP2 ADD SWAP1 PUSH2 0x137 SWAP2 SWAP1 PUSH2 0x486 JUMP JUMPDEST PUSH2 0x2BF JUMP JUMPDEST PUSH1 0x40 MLOAD PUSH2 0x149 SWAP2 SWAP1 PUSH2 0x392 JUMP JUMPDEST PUSH1 0x40 MLOAD DUP1 SWAP2 SUB SWAP1 RETURN JUMPDEST PUSH2 0x15A PUSH2 0x2D4 JUMP JUMPDEST PUSH1 0x40 MLOAD PUSH2 0x167 SWAP2 SWAP1 PUSH2 0x392 JUMP JUMPDEST PUSH1 0x40 MLOAD DUP1 SWAP2 SUB SWAP1 RETURN JUMPDEST PUSH2 0x178 PUSH2 0x2DA JUMP JUMPDEST PUSH1 0x40 MLOAD PUSH2 0x185 SWAP2 SWAP1 PUSH2 0x443 JUMP JUMPDEST PUSH1 0x40 MLOAD DUP1 SWAP2 SUB SWAP1 RETURN JUMPDEST PUSH2 0x1A8 PUSH1 0x4 DUP1 CALLDATASIZE SUB DUP2 ADD SWAP1 PUSH2 0x1A3 SWAP2 SWAP1 PUSH2 0x4B1 JUMP JUMPDEST PUSH2 0x2FF JUMP JUMPDEST PUSH1 0x40 MLOAD PUSH2 0x1B5 SWAP2 SWAP1 PUSH2 0x509 JUMP JUMPDEST PUSH1 0x40 MLOAD DUP1 SWAP2 SUB SWAP1 RETURN JUMPDEST PUSH2 0x1C6 PUSH2 0x329 JUMP JUMPDEST PUSH1 0x40 MLOAD PUSH2 0x1D3 SWAP2 SWAP1 PUSH2 0x392 JUMP JUMPDEST PUSH1 0x40 MLOAD DUP1 SWAP2 SUB SWAP1 RETURN JUMPDEST PUSH2 0x1E4 PUSH2 0x32F JUMP JUMPDEST PUSH1 0x40 MLOAD PUSH2 0x1F1 SWAP2 SWAP1 PUSH2 0x392 JUMP JUMPDEST PUSH1 0x40 MLOAD DUP1 SWAP2 SUB SWAP1 RETURN JUMPDEST PUSH2 0x202 PUSH2 0x335 JUMP JUMPDEST PUSH1 0x40 MLOAD PUSH2 0x20F SWAP2 SWAP1 PUSH2 0x392 JUMP JUMPDEST PUSH1 0x40 MLOAD DUP1 SWAP2 SUB SWAP1 RETURN JUMPDEST PUSH2 0x232 PUSH1 0x4 DUP1 CALLDATASIZE SUB DUP2 ADD SWAP1 PUSH2 0x22D SWAP2 SWAP1 PUSH2 0x522 JUMP JUMPDEST PUSH2 0x33B JUMP JUMPDEST PUSH1 0x40 MLOAD PUSH2 0x23F SWAP2 SWAP1 PUSH2 0x509 JUMP JUMPDEST PUSH1 0x40 MLOAD DUP1 SWAP2 SUB SWAP1 RETURN JUMPDEST PUSH2 0x262 PUSH1 0x4 DUP1 CALLDATASIZE SUB DUP2 ADD SWAP1 PUSH2 0x25D SWAP2 SWAP1 PUSH2 0x486 JUMP JUMPDEST PUSH2 0x365 JUMP JUMPDEST PUSH1 0x40 MLOAD PUSH2 0x26F SWAP2 SWAP1 PUSH2 0x392 JUMP JUMPDEST PUSH1 0x40 MLOAD DUP1 SWAP2 SUB SWAP1 RETURN JUMPDEST PUSH1 0xB SLOAD DUP2 JUMP JUMPDEST PUSH1 0x5 DUP2 DUP2 SLOAD DUP2 LT PUSH2 0x28D JUMPI PUSH0 DUP1 REVERT JUMPDEST SWAP1 PUSH0 MSTORE PUSH1 0x20 PUSH0 KECCAK256 ADD PUSH0 SWAP2 POP SLOAD SWAP1 PUSH2 0x100 EXP SWAP1 DIV PUSH20 0xFFFFFFFFFFFFFFFFFFFFFFFFFFFFFFFFFFFFFFFF AND DUP2 JUMP JUMPDEST PUSH1 0x9 SLOAD DUP2 JUMP JUMPDEST PUSH1 0x4 PUSH1 0x20 MSTORE DUP1 PUSH0 MSTORE PUSH1 0x40 PUSH0 KECCAK256 PUSH0 SWAP2 POP SWAP1 POP SLOAD DUP2 JUMP JUMPDEST PUSH1 0x7 SLOAD DUP2 JUMP JUMPDEST PUSH1 0xC PUSH0 SWAP1 SLOAD SWAP1 PUSH2 0x100 EXP SWAP1 DIV PUSH20 0xFFFFFFFFFFFFFFFFFFFFFFFFFFFFFFFFFFFFFFFF AND DUP2 JUMP JUMPDEST PUSH1 0x2 PUSH1 0x20 MSTORE DUP2 PUSH0 MSTORE PUSH1 0x40 PUSH0 KECCAK256 PUSH1 0x20 MSTORE DUP1 PUSH0 MSTORE PUSH1 0x40 PUSH0 KECCAK256 PUSH0 SWAP2 POP SWAP2 POP SWAP1 SLOAD SWAP1 PUSH2 0x100 EXP SWAP1 DIV PUSH1 0xFF AND DUP2 JUMP JUMPDEST PUSH1 0x8 SLOAD DUP2 JUMP JUMPDEST PUSH1 0xA SLOAD DUP2 JUMP JUMPDEST PUSH1 0x6 SLOAD DUP2 JUMP JUMPDEST PUSH1 0x3 PUSH1 0x20 MSTORE DUP2 PUSH0 MSTORE PUSH1 0x40 PUSH0 KECCAK256 PUSH1 0x20 MSTORE DUP1 PUSH0 MSTORE PUSH1 0x40 PUSH0 KECCAK256 PUSH0 SWAP2 POP SWAP2 POP SWAP1 SLOAD SWAP1 PUSH2 0x100 EXP SWAP1 DIV PUSH1 0xFF AND DUP2 JUMP JUMPDEST PUSH1 0x1 PUSH1 0x20 MSTORE DUP1 PUSH0 MSTORE PUSH1 0x40 PUSH0 KECCAK256 PUSH0 SWAP2 POP SWAP1 POP SLOAD DUP2 JUMP JUMPDEST PUSH0 DUP2 SWAP1 POP SWAP2 SWAP1 POP JUMP JUMPDEST PUSH2 0x38C DUP2 PUSH2 0x37A JUMP JUMPDEST DUP3 MSTORE POP POP JUMP JUMPDEST PUSH0 PUSH1 0x20 DUP3 ADD SWAP1 POP PUSH2 0x3A5 PUSH0 DUP4 ADD DUP5 PUSH2 0x383 JUMP JUMPDEST SWAP3 SWAP2 POP POP JUMP JUMPDEST PUSH0 DUP1 REVERT JUMPDEST PUSH2 0x3B8 DUP2 PUSH2 0x37A JUMP JUMPDEST DUP2 EQ PUSH2 0x3C2 JUMPI PUSH0 DUP1 REVERT JUMPDEST POP JUMP JUMPDEST PUSH0 DUP2 CALLDATALOAD SWAP1 POP PUSH2 0x3D3 DUP2 PUSH2 0x3AF JUMP JUMPDEST SWAP3 SWAP2 POP POP JUMP JUMPDEST PUSH0 PUSH1 0x20 DUP3 DUP5 SUB SLT ISZERO PUSH2 0x3EE JUMPI PUSH2 0x3ED PUSH2 0x3AB JUMP JUMPDEST JUMPDEST PUSH0 PUSH2 0x3FB DUP5 DUP3 DUP6 ADD PUSH2 0x3C5 JUMP JUMPDEST SWAP2 POP POP SWAP3 SWAP2 POP POP JUMP JUMPDEST PUSH0 PUSH20 0xFFFFFFFFFFFFFFFFFFFFFFFFFFFFFFFFFFFFFFFF DUP3 AND SWAP1 POP SWAP2 SWAP1 POP JUMP JUMPDEST PUSH0 PUSH2 0x42D DUP3 PUSH2 0x404 JUMP JUMPDEST SWAP1 POP SWAP2 SWAP1 POP JUMP JUMPDEST PUSH2 0x43D DUP2 PUSH2 0x423 JUMP JUMPDEST DUP3 MSTORE POP POP JUMP JUMPDEST PUSH0 PUSH1 0x20 DUP3 ADD SWAP1 POP PUSH2 0x456 PUSH0 DUP4 ADD DUP5 PUSH2 0x434 JUMP JUMPDEST SWAP3 SWAP2 POP POP JUMP JUMPDEST PUSH2 0x465 DUP2 PUSH2 0x423 JUMP JUMPDEST DUP2 EQ PUSH2 0x46F JUMPI PUSH0 DUP1 REVERT JUMPDEST POP JUMP JUMPDEST PUSH0 DUP2 CALLDATALOAD SWAP1 POP PUSH2 0x480 DUP2 PUSH2 0x45C JUMP JUMPDEST SWAP3 SWAP2 POP POP JUMP JUMPDEST PUSH0 PUSH1 0x20 DUP3 DUP5 SUB SLT ISZERO PUSH2 0x49B JUMPI PUSH2 0x49A PUSH2 0x3AB JUMP JUMPDEST JUMPDEST PUSH0 PUSH2 0x4A8 DUP5 DUP3 DUP6 ADD PUSH2 0x472 JUMP JUMPDEST SWAP2 POP POP SWAP3 SWAP2 POP POP JUMP JUMPDEST PUSH0 DUP1 PUSH1 0x40 DUP4 DUP6 SUB SLT ISZERO PUSH2 0x4C7 JUMPI PUSH2 0x4C6 PUSH2 0x3AB JUMP JUMPDEST JUMPDEST PUSH0 PUSH2 0x4D4 DUP6 DUP3 DUP7 ADD PUSH2 0x472 JUMP JUMPDEST SWAP3 POP POP PUSH1 0x20 PUSH2 0x4E5 DUP6 DUP3 DUP7 ADD PUSH2 0x3C5 JUMP JUMPDEST SWAP2 POP POP SWAP3 POP SWAP3 SWAP1 POP JUMP JUMPDEST PUSH0 DUP2 ISZERO ISZERO SWAP1 POP SWAP2 SWAP1 POP JUMP JUMPDEST PUSH2 0x503 DUP2 PUSH2 0x4EF JUMP JUMPDEST DUP3 MSTORE POP POP JUMP JUMPDEST PUSH0 PUSH1 0x20 DUP3 ADD SWAP1 POP PUSH2 0x51C PUSH0 DUP4 ADD DUP5 PUSH2 0x4FA JUMP JUMPDEST SWAP3 SWAP2 POP POP JUMP JUMPDEST PUSH0 DUP1 PUSH1 0x40 DUP4 DUP6 SUB SLT ISZERO PUSH2 0x538 JUMPI PUSH2 0x537 PUSH2 0x3AB JUMP JUMPDEST JUMPDEST PUSH0 PUSH2 0x545 DUP6 DUP3 DUP7 ADD PUSH2 0x472 JUMP JUMPDEST SWAP3 POP POP PUSH1 0x20 PUSH2 0x556 DUP6 DUP3 DUP7 ADD PUSH2 0x472 JUMP JUMPDEST SWAP2 POP POP SWAP3 POP SWAP3 SWAP1 POP JUMP INVALID LOG2 PUSH5 0x6970667358 0x22 SLT KECCAK256 0x23 RETURN RETURN 0xDD 0xA9 PUSH1 0x7A 0xE9 0xB8 0xEF CODECOPY SWAP7 0x25 MULMOD ADDMOD ADDRESS TSTORE 0xE6 SSTORE 0xD CALLER PUSH3 0x3B2B52 SLT STATICCALL PUSH8 0xC5716D6864736F6C PUSH4 0x43000818 STOP CALLER "
				},
				"gasEstimates": {
					"creation": {
						"codeDepositCost": "286000",
						"executionCost": "infinite",
						"totalCost": "infinite"
					},
					"external": {
						"InvestorList(uint256)": "4967",
						"availableFunds()": "2514",
						"contributionTimeEnd()": "2447",
						"isVoted(address,uint256)": "3071",
						"manager()": "2619",
						"nextProposalId()": "2470",
						"numOfshares(address)": "2912",
						"proposals(address)": "2869",
						"quorum()": "2426",
						"totalshares()": "2491",
						"voteTime()": "2469",
						"withdrawlStatus(address,address)": "infinite"
					}
				},
				"methodIdentifiers": {
					"InvestorList(uint256)": "29f27577",
					"availableFunds()": "46fcff4c",
					"contributionTimeEnd()": "afc8275b",
					"isVoted(address,uint256)": "8ee36f05",
					"manager()": "481c6a75",
					"nextProposalId()": "2ab09d14",
					"numOfshares(address)": "e65da429",
					"proposals(address)": "3341b445",
					"quorum()": "1703a018",
					"totalshares()": "d061c81e",
					"voteTime()": "bcf93dd6",
					"withdrawlStatus(address,address)": "dd5fee6f"
				}
			},
			"storageLayout": {
				"storage": [
					{
						"astId": 20,
						"contract": "contracts/1_Dao.sol:Dao",
						"label": "isInvestor",
						"offset": 0,
						"slot": "0",
						"type": "t_mapping(t_address,t_bool)"
					},
					{
						"astId": 24,
						"contract": "contracts/1_Dao.sol:Dao",
						"label": "numOfshares",
						"offset": 0,
						"slot": "1",
						"type": "t_mapping(t_address,t_uint256)"
					},
					{
						"astId": 30,
						"contract": "contracts/1_Dao.sol:Dao",
						"label": "isVoted",
						"offset": 0,
						"slot": "2",
						"type": "t_mapping(t_address,t_mapping(t_uint256,t_bool))"
					},
					{
						"astId": 36,
						"contract": "contracts/1_Dao.sol:Dao",
						"label": "withdrawlStatus",
						"offset": 0,
						"slot": "3",
						"type": "t_mapping(t_address,t_mapping(t_address,t_bool))"
					},
					{
						"astId": 40,
						"contract": "contracts/1_Dao.sol:Dao",
						"label": "proposals",
						"offset": 0,
						"slot": "4",
						"type": "t_mapping(t_address,t_uint256)"
					},
					{
						"astId": 43,
						"contract": "contracts/1_Dao.sol:Dao",
						"label": "InvestorList",
						"offset": 0,
						"slot": "5",
						"type": "t_array(t_address)dyn_storage"
					},
					{
						"astId": 45,
						"contract": "contracts/1_Dao.sol:Dao",
						"label": "totalshares",
						"offset": 0,
						"slot": "6",
						"type": "t_uint256"
					},
					{
						"astId": 47,
						"contract": "contracts/1_Dao.sol:Dao",
						"label": "availableFunds",
						"offset": 0,
						"slot": "7",
						"type": "t_uint256"
					},
					{
						"astId": 49,
						"contract": "contracts/1_Dao.sol:Dao",
						"label": "contributionTimeEnd",
						"offset": 0,
						"slot": "8",
						"type": "t_uint256"
					},
					{
						"astId": 51,
						"contract": "contracts/1_Dao.sol:Dao",
						"label": "nextProposalId",
						"offset": 0,
						"slot": "9",
						"type": "t_uint256"
					},
					{
						"astId": 53,
						"contract": "contracts/1_Dao.sol:Dao",
						"label": "voteTime",
						"offset": 0,
						"slot": "10",
						"type": "t_uint256"
					},
					{
						"astId": 55,
						"contract": "contracts/1_Dao.sol:Dao",
						"label": "quorum",
						"offset": 0,
						"slot": "11",
						"type": "t_uint256"
					},
					{
						"astId": 57,
						"contract": "contracts/1_Dao.sol:Dao",
						"label": "manager",
						"offset": 0,
						"slot": "12",
						"type": "t_address"
					}
				],
				"types": {
					"t_address": {
						"encoding": "inplace",
						"label": "address",
						"numberOfBytes": "20"
					},
					"t_array(t_address)dyn_storage": {
						"base": "t_address",
						"encoding": "dynamic_array",
						"label": "address[]",
						"numberOfBytes": "32"
					},
					"t_bool": {
						"encoding": "inplace",
						"label": "bool",
						"numberOfBytes": "1"
					},
					"t_mapping(t_address,t_bool)": {
						"encoding": "mapping",
						"key": "t_address",
						"label": "mapping(address => bool)",
						"numberOfBytes": "32",
						"value": "t_bool"
					},
					"t_mapping(t_address,t_mapping(t_address,t_bool))": {
						"encoding": "mapping",
						"key": "t_address",
						"label": "mapping(address => mapping(address => bool))",
						"numberOfBytes": "32",
						"value": "t_mapping(t_address,t_bool)"
					},
					"t_mapping(t_address,t_mapping(t_uint256,t_bool))": {
						"encoding": "mapping",
						"key": "t_address",
						"label": "mapping(address => mapping(uint256 => bool))",
						"numberOfBytes": "32",
						"value": "t_mapping(t_uint256,t_bool)"
					},
					"t_mapping(t_address,t_uint256)": {
						"encoding": "mapping",
						"key": "t_address",
						"label": "mapping(address => uint256)",
						"numberOfBytes": "32",
						"value": "t_uint256"
					},
					"t_mapping(t_uint256,t_bool)": {
						"encoding": "mapping",
						"key": "t_uint256",
						"label": "mapping(uint256 => bool)",
						"numberOfBytes": "32",
						"value": "t_bool"
					},
					"t_uint256": {
						"encoding": "inplace",
						"label": "uint256",
						"numberOfBytes": "32"
					}
				}
			},
			"userdoc": {
				"kind": "user",
				"methods": {},
				"version": 1
			}
		}
	}
}